:100000000C9442000C946A000C946A000C946A00F0
:100010000C946A000C946A000C946A000C946A00B8
:100020000C946A000C946A000C946A000C946A00A8
:100030000C946A000C946A000C946A000C946A0098
:100040000C946A000C946A000C946A000C946A0088
:100050000C946A000C946A000C946A000C946A0078
:100060000C946A000C946A00DD01FD011E0243023B
:100070007502BD0239034B0370039B03C003E10308
:100080000604CC1311241FBECFEFD8E0DEBFCDBFD6
:1000900015E0A0E0B1E0ECE0F3E302C005900D92C2
:1000A000A239B107D9F726E0A2E9B5E001C01D9257
:1000B000AB30B207E1F710E0C2E4D0E004C0219712
:1000C000FE010E948516C134D107C9F70E94980C21
:1000D0000C9484190C940000019789F46F3F7F4FB2
:1000E00071F48091E3059091E4059093E20580938B
:1000F000E10561E070E082E995E00E94D313089584
:100100009BB19F70282F207F922B9BB99BB19E7F24
:100110009BB99BB192609BB935E03A95F1F700002D
:100120009BB19D7F9BB9EFE1F3E03197F1F700C000
:1001300000002BB1F0E18F9FC0011124922F9F701E
:10014000892B8BB98BB182608BB935E03A95F1F789
:1001500000008BB18D7F8BB98FE39FE10197F1F7A1
:1001600000C0000008959BB19F70282F207F922B24
:100170009BB99BB191609BB99BB192609BB935E0F3
:100180003A95F1F700009BB19D7F9BB9EFE1F3E059
:100190003197F1F700C000002BB1F0E18F9FC00153
:1001A0001124922F9F70892B8BB98BB182608BB9F0
:1001B00035E03A95F1F700008BB18D7F8BB98FE375
:1001C0009FE10197F1F700C0000008958FEF8AB911
:1001D0002FEF89EF90E0215080409040E1F700C080
:1001E000000082E00E94800088E20E9480008CE093
:1001F0000E94800086E00E94800081E00E948000D2
:100200008FE39FE10197F1F700C0000008950F937D
:100210001F93CF93DF938C01C0E0D0E0F801EC0F87
:10022000FD1F8081882321F00E94B3002196F6CF24
:10023000DF91CF911F910F910895CF93DF93EA0142
:10024000811108C0603130F4862F8F7080680E9461
:10025000800009C0813039F4603128F4862F8F7016
:10026000806C0E948000CE010E940701DF91CF9137
:10027000089581E00E9480008FE39FE10197F1F7EC
:1002800000C0000080E80E94800008954A9909C0DB
:100290004B990AC032990BC0339B0CC083E090E0AD
:1002A000089580E090E0089581E090E0089582E074
:1002B00090E008958FEF9FEF0895CF93DF9300D0E4
:1002C00000D000D0CDB7DEB785B185B188B186E06A
:1002D000ECE5F4E0DE01119601900D928A95E1F7CC
:1002E00087E085B982E088B960E070E0633071052D
:1002F000A4F514B8FB01EE0FFF1F81E090E08C0F16
:100300009D1FE80FF91F81E090E0008002C0880F78
:10031000991F0A94E2F784B940E050E04330510558
:10032000BCF423B130E0042E02C0359527950A9421
:10033000E2F720FD0AC0CA01880F991F480F591F14
:10034000CB010196840F951F0DC04F5F5F4FE6CF25
:10035000319B06C06F5F7F4FC9CF8FEF90E002C027
:1003600080E090E026960FB6F894DEBF0FBECDBFBA
:10037000DF91CF9108952F923F924F925F926F92AB
:100380007F928F929F92AF92BF92CF92DF92EF9225
:10039000FF920F931F93CF93DF93CDB7DEB73C014E
:1003A0002B011A01D501ED91FC91ED30F10508F01A
:1003B0004DC2EC5CFF4F0C948516C401880F991F49
:1003C000880C991C880C991C880C991C880E991E05
:1003D000F601808191816AE070E00E947116880DBB
:1003E000991D91838083FFEF29E648E1F150204079
:1003F0004040E1F700C0000029C2D6018D919C91D8
:100400006AE070E00E947116CB01880F991F660F99
:10041000771F660F771F660F771F680F791F860E8D
:10042000971EF60191828082FFEF29E648E1F150A4
:1004300020404040E1F700C0000008C282E088167A
:100440009104BCF4C401880F991F880C991C880C76
:10045000991C880C991C880E991ED7018D919C912E
:100460006AE070E00E947116880D991DF701918372
:100470008083FFEF29E648E1F15020404040E1F75A
:1004800000C00000E3C1D7018D919C916AE070E04B
:100490000E947116CB01880F991F660F771F660F98
:1004A000771F660F771F680F791F860E971EB1E0C2
:1004B0008B1A9108F7019182808299201CF4118295
:1004C000108209C0FCE08F1691042CF08BE090E0C4
:1004D000D7018D939C93BFEFE9E6F8E1B150E0407E
:1004E000F040E1F700C00000B1C1D7018D919C91AF
:1004F0000197D9F0B4E08B169104BCF4C401880FC5
:10050000991F880C991C880C991C880C991C880EC2
:10051000991EF901808191816AE070E00E94711654
:10052000880D991D918380831EC0D9018D919C9166
:1005300081309105C1F4B3E08B169104A4F4A401B9
:10054000440F551F880C991C880C991C880C991C09
:10055000840E951E6AE070E00E947116880D991D48
:10056000F90191838083FFEF29E648E1F1502040B3
:100570004040E1F700C0000069C1D9018D919C9114
:100580006AE070E00E947116CB01880F991F660F18
:10059000771F660F771F660F771F680F791F860E0C
:1005A000971EF90191828082D7018D919C910097CD
:1005B00091F08230910579F08430910561F08630B8
:1005C000910549F08730910531F08930910519F096
:1005D0008B30910551F4B0E28B16910434F08FE129
:1005E00090E0F901918380833AC08330910549F00E
:1005F0008530910531F08830910519F08A309105E8
:1006000051F4FFE18F16910434F08EE190E0D901AE
:100610008D939C9324C08130910579F4F60140813B
:100620005181452B51F4FDE18F16910434F08CE19A
:1006300090E0D9018D939C9312C0019781F4F6014B
:100640008081918183709927892B49F4FEE18F166F
:1006500091042CF08DE190E0D9018D939C93BFEF34
:10066000E9E6F8E1B150E040F040E1F700C00000F9
:10067000EDC0C40101978730910518F4D8018D931E
:100680009C93BFEFE9E6F8E1B150E040F040E1F7BC
:1006900000C00000DBC023E082169104BCF4C4015A
:1006A000880F991F880C991C880C991C880C991C20
:1006B000880E991EDA018D919C916AE070E00E948B
:1006C0007116880D991DF10191838083FFEF29E652
:1006D00048E1F15020404040E1F700C00000B6C0C2
:1006E000DA018D919C918431910524F0B4E08B1650
:1006F00091041CF084319105A4F46AE070E00E943A
:100700007116CB01880F991F660F771F660F771F31
:10071000660F771F680F791F860E971EF101918271
:100720008082FFEF29E648E1F15020404040E1F7A8
:1007300000C000008BC086E088169104BCF4C401A0
:10074000880F991F880C991C880C991C880C991C7F
:10075000880E991EDB018D919C916AE070E00E94E9
:100760007116880D991DF20191838083FFEF29E6B0
:1007700048E1F15020404040E1F700C0000066C071
:10078000DB018D919C916AE070E00E947116CB01B3
:10079000880F991F660F771F660F771F660F771FE9
:1007A000680F791F860E971EF20191828082FFEFFB
:1007B00029E648E1F15020404040E1F700C0000048
:1007C00045C086E088169104BCF4C401880F991FC7
:1007D000880C991C880C991C880C991C880E991EF1
:1007E000D3018D919C916AE070E00E947116880D92
:1007F000991DF30191838083FFEF29E648E1F150D1
:1008000020404040E1F700C0000020C0DC018D9195
:100810009C916AE070E00E947116CB01880F991FCD
:10082000660F771F660F771F660F771F680F791F98
:10083000860E971EF30191828082FFEF29E648E140
:10084000F15020404040E1F700C00000D5018D91FB
:100850009C91119701968D939C93DF91CF911F915D
:100860000F91FF90EF90DF90CF90BF90AF909F904F
:100870008F907F906F905F904F903F902F90089552
:10088000FC0184E6689FA00111249F0136952795FD
:10089000ABE7B4E10E948B16BC0176956795CA015F
:1008A0000E945D166115710509F460C7E23793E196
:1008B000F90771F488B1816088B985EA8A95F1F702
:1008C000000088B18E7F88B995EA9A95F1F700000B
:1008D000EB3582E1F80761F488B1816088B990EB6B
:1008E0009A95F1F788B18E7F88B980EB8A95F1F7F8
:1008F000E33591E1F90771F488B1816088B98AEB39
:100900008A95F1F700C088B18E7F88B99AEB9A95E5
:10091000F1F700C0EA3580E1F80771F488B1816031
:1009200088B995EC9A95F1F7000088B18E7F88B967
:1009300085EC8A95F1F70000EF369FE0F90761F446
:1009400088B1816088B980ED8A95F1F788B18E7F92
:1009500088B990ED9A95F1F7E1398EE0F80771F4D6
:1009600088B1816088B99AED9A95F1F700C088B195
:100970008E7F88B98AED8A95F1F700C0E03C9DE052
:10098000F90771F488B1816088B98AEE8A95F1F728
:1009900000C088B18E7F88B99AEE9A95F1F700C0B1
:1009A000EA3F8CE0F80771F488B1816088B995EF6F
:1009B0009A95F1F7000088B18E7F88B985EF8A9506
:1009C000F1F70000E0349CE0F90791F488B1816010
:1009D00088B983EC90E00197F1F700C0000088B17E
:1009E0008E7F88B983EC90E00197F1F700C000009A
:1009F000E0399BE0F90791F488B1816088B98FEC08
:100A000090E00197F1F700C0000088B18E7F88B9AF
:100A10008FEC90E00197F1F700C00000EA3E9AE009
:100A2000F90791F488B1816088B98BED90E0019766
:100A3000F1F700C0000088B18E7F88B98BED90E09F
:100A40000197F1F700C00000ED349AE0F90791F446
:100A500088B1816088B987EE90E00197F1F700C016
:100A6000000088B18E7F88B987EE90E00197F1F79A
:100A700000C00000E93B99E0F90791F488B181607A
:100A800088B987EF90E00197F1F700C0000088B1C6
:100A90008E7F88B987EF90E00197F1F700C00000E2
:100AA000ED3299E0F90791F488B1816088B983E06B
:100AB00091E00197F1F700C0000088B18E7F88B9FE
:100AC00083E091E00197F1F700C00000E93A98E077
:100AD000F90791F488B1816088B983E191E00197C9
:100AE000F1F700C0000088B18E7F88B983E191E002
:100AF0000197F1F700C00000ED3298E0F90791F49A
:100B000088B1816088B983E291E00197F1F700C074
:100B1000000088B18E7F88B983E291E00197F1F7F8
:100B200000C00000E83B97E0F90791F488B18160CC
:100B300088B987E391E00197F1F700C0000088B120
:100B40008E7F88B987E391E00197F1F700C000003C
:100B5000E93497E0F90791F488B1816088B987E4B6
:100B600091E00197F1F700C0000088B18E7F88B94D
:100B700087E491E00197F1F700C00000E03E96E0C5
:100B8000F90791F488B1816088B98BE591E001970C
:100B9000F1F700C0000088B18E7F88B98BE591E045
:100BA0000197F1F700C00000ED3796E0F90791F4E6
:100BB00088B1816088B983E791E00197F1F700C0BF
:100BC000000088B18E7F88B983E791E00197F1F743
:100BD00000C00000E03296E0F90791F488B181602E
:100BE00088B987E891E00197F1F700C0000088B16B
:100BF0008E7F88B987E891E00197F1F700C0000087
:100C0000E83C95E0F90791F488B1816088B98FE9F3
:100C100091E00197F1F700C0000088B18E7F88B99C
:100C20008FE991E00197F1F700C00000E53795E00A
:100C3000F90791F488B1816088B987EB91E0019759
:100C4000F1F700C0000088B18E7F88B987EB91E092
:100C50000197F1F700C00000E73295E0F90791F441
:100C600088B1816088B983ED91E00197F1F700C008
:100C7000000088B18E7F88B983ED91E00197F1F78C
:100C800000C00000ED3D94E0F90791F488B1816067
:100C900088B98BEE91E00197F1F700C0000088B1B0
:100CA0008E7F88B98BEE91E00197F1F700C00000CC
:100CB000E73994E0F90791F488B1816088B98BE055
:100CC00092E00197F1F700C0000088B18E7F88B9EB
:100CD0008BE092E00197F1F700C00000E53594E069
:100CE000F90791F488B1816088B98BE292E00197AD
:100CF000F1F700C0000088B18E7F88B98BE292E0E6
:100D00000197F1F700C00000E73194E0F90791F492
:100D100088B1816088B98BE492E00197F1F700C057
:100D2000000088B18E7F88B98BE492E00197F1F7DB
:100D300000C00000EC3D93E0F90791F488B18160B8
:100D400088B98FE692E00197F1F700C0000088B102
:100D50008E7F88B98FE692E00197F1F700C000001E
:100D6000E43A93E0F90791F488B1816088B983E9A6
:100D700092E00197F1F700C0000088B18E7F88B93A
:100D800083E992E00197F1F700C00000E03793E0BB
:100D9000F90791F488B1816088B98BEB92E00197F3
:100DA000F1F700C0000088B18E7F88B98BEB92E02C
:100DB0000197F1F700C00000EF3393E0F90791F4D9
:100DC00088B1816088B983EE92E00197F1F700C0A5
:100DD000000088B18E7F88B983EE92E00197F1F729
:100DE00000C00000E03193E0F90791F488B1816020
:100DF00088B98FE093E00197F1F700C0000088B157
:100E00008E7F88B98FE093E00197F1F700C0000072
:100E1000E43E92E0F90791F488B1816088B98FE3EC
:100E200093E00197F1F700C0000088B18E7F88B988
:100E30008FE393E00197F1F700C00000EA3B92E0F6
:100E4000F90791F488B1816088B98FE693E0019742
:100E5000F1F700C0000088B18E7F88B98FE693E07B
:100E60000197F1F700C00000E33992E0F90791F42F
:100E700088B1816088B983EA93E00197F1F700C0F7
:100E8000000088B18E7F88B983EA93E00197F1F77B
:100E900000C00000EE3692E0F90791F488B181605D
:100EA00088B98BED93E00197F1F700C0000088B19D
:100EB0008E7F88B98BED93E00197F1F700C00000B9
:100EC000EB3492E0F90791F488B1816088B987E149
:100ED00094E00197F1F700C0000088B18E7F88B9D7
:100EE00087E194E00197F1F700C00000EA3292E058
:100EF000F90791F488B1816088B983E594E001979E
:100F0000F1F700C0000088B18E7F88B983E594E0D6
:100F10000197F1F700C00000EB3092E0F90791F47F
:100F200088B1816088B987E994E00197F1F700C042
:100F3000000088B18E7F88B987E994E00197F1F7C6
:100F400000C00000EE3E91E0F90791F488B18160A5
:100F500088B98BED94E00197F1F700C0000088B1EB
:100F60008E7F88B98BED94E00197F1F700C0000007
:100F7000E23D91E0F90791F488B1816088B987E298
:100F800095E00197F1F700C0000088B18E7F88B925
:100F900087E295E00197F1F700C00000E83B91E09F
:100FA000F90791F488B1816088B983E795E00197EA
:100FB000F1F700C0000088B18E7F88B983E795E023
:100FC0000197F1F700C00000EF3991E0F90791F4C3
:100FD00088B1816088B987EC95E00197F1F700C08E
:100FE000000088B18E7F88B987EC95E00197F1F712
:100FF00000C00000E83891E0F90791F488B1816001
:1010000088B98FE196E00197F1F700C0000088B140
:101010008E7F88B98FE196E00197F1F700C000005C
:10102000E23791E0F90791F488B1816088B98BE7E4
:1010300096E00197F1F700C0000088B18E7F88B973
:101040008BE796E00197F1F700C00000ED3591E0E5
:10105000F90791F488B1816088B98FED96E0019726
:10106000F1F700C0000088B18E7F88B98FED96E05F
:101070000197F1F700C00000EA3491E0F90791F41C
:1010800088B1816088B987E497E00197F1F700C0E3
:10109000000088B18E7F88B987E497E00197F1F767
:1010A00000C00000E73391E0F90791F488B1816056
:1010B00088B987EB97E00197F1F700C0000088B18D
:1010C0008E7F88B987EB97E00197F1F700C00000A9
:1010D000E63291E0F90791F488B1816088B98BE23A
:1010E00098E00197F1F700C0000088B18E7F88B9C1
:1010F0008BE298E00197F1F700C00000E53191E044
:10110000F90791F488B1816088B987EA98E001977E
:10111000F1F700C0000088B18E7F88B987EA98E0B7
:101120000197F1F700C00000E63091E0F90791F473
:1011300088B1816088B98BE299E00197F1F700C02E
:10114000000088B18E7F88B98BE299E00197F1F7B2
:1011500000C00000E73FF10591F488B1816088B9D3
:1011600087EB99E00197F1F700C0000088B18E7F0E
:1011700088B987EB99E00197F1F700C00000E93EDC
:10118000F10591F488B1816088B98BE49AE0019708
:10119000F1F700C0000088B18E7F88B98BE49AE037
:1011A0000197F1F700C00000EC3DF10591F488B122
:1011B000816088B987EE9AE00197F1F700C00000DE
:1011C00088B18E7F88B987EE9AE00197F1F700C069
:1011D0000000E03DF10591F488B1816088B98FE8A5
:1011E0009BE00197F1F700C0000088B18E7F88B9BD
:1011F0008FE89BE00197F1F700C00000E43CF105A7
:1012000091F488B1816088B98FE39CE00197F1F790
:1012100000C0000088B18E7F88B98FE39CE0019701
:10122000F1F700C00000E93BF10591F488B181605D
:1012300088B98BEF9CE00197F1F700C0000088B1FE
:101240008E7F88B98BEF9CE00197F1F700C000001A
:10125000EF3AF10591F488B1816088B98FEB9DE098
:101260000197F1F700C0000088B18E7F88B98FEB3D
:101270009DE00197F1F700C00000E53AF10591F417
:1012800088B1816088B98FE89EE00197F1F700C0CE
:10129000000088B18E7F88B98FE89EE00197F1F752
:1012A00000C00000EC39F10591F488B1816088B983
:1012B0008FE69FE00197F1F700C0000088B18E7FB4
:1012C00088B98FE69FE00197F1F700C00000E3398D
:1012D000F10591F488B1816088B98BE590E10197BF
:1012E000F1F700C0000088B18E7F88B98BE590E1EE
:1012F0000197F1F700C00000EB38F10591F488B1D7
:10130000816088B983E591E10197F1F700C00000A1
:1013100088B18E7F88B983E591E10197F1F700C02C
:101320000000E338F10591F488B1816088B98BE55C
:1013300092E10197F1F700C0000088B18E7F88B973
:101340008BE592E10197F1F700C00000EB37F10562
:1013500091F488B1816088B983E793E10197F1F74F
:1013600000C0000088B18E7F88B983E793E10197C0
:10137000F1F700C00000E537F10591F488B1816014
:1013800088B98BE994E10197F1F700C0000088B1BA
:101390008E7F88B98BE994E10197F1F700C00000D6
:1013A000EE36F10591F488B1816088B983ED95E15D
:1013B0000197F1F700C0000088B18E7F88B983EDF6
:1013C00095E10197F1F700C00000E836F10591F4CE
:1013D00088B1816088B98FE197E10197F1F700C08A
:1013E000000088B18E7F88B98FE197E10197F1F70E
:1013F00000C00000E236F10591F488B1816088B93F
:101400008FE798E10197F1F700C0000088B18E7F67
:1014100088B98FE798E10197F1F700C00000ED353A
:10142000F10591F488B1816088B983EF99E1019762
:10143000F1F700C0000088B18E7F88B983EF99E191
:101440000197F1F700C00000E735F10591F488B18C
:10145000816088B98FE79BE10197F1F700C0000038
:1014600088B18E7F88B98FE79BE10197F1F700C0C3
:101470000000E235F10591F488B1816088B983E21A
:101480009DE10197F1F700C0000088B18E7F88B917
:1014900083E29DE10197F1F700C00000EE34F10511
:1014A00091F488B1816088B98FED9EE10197F1F7E1
:1014B00000C0000088B18E7F88B98FED9EE1019752
:1014C000F1F700C00000E934F10591F488B18160C2
:1014D00088B983EB90E20197F1F700C0000088B172
:1014E0008E7F88B983EB90E20197F1F700C000008E
:1014F000E534F10591F488B1816088B983EA92E21C
:101500000197F1F700C0000088B18E7F88B983EAA7
:1015100092E20197F1F700C00000E134F10591F487
:1015200088B1816088B983EB94E20197F1F700C03C
:10153000000088B18E7F88B983EB94E20197F1F7C0
:1015400000C00000EE33F10591F488B1816088B9E4
:1015500083EE96E20197F1F700C0000088B18E7F1C
:1015600088B983EE96E20197F1F700C00000EA33F4
:10157000F10591F488B1816088B983E399E201971C
:10158000F1F700C0000088B18E7F88B983E399E24B
:101590000197F1F700C00000E733F10591F488B13D
:1015A000816088B987EA9BE20197F1F700C00000EB
:1015B00088B18E7F88B987EA9BE20197F1F700C076
:1015C0000000E433F10591F488B1816088B98FE3BC
:1015D0009EE20197F1F700C0000088B18E7F88B9C4
:1015E0008FE39EE20197F1F700C00000E133F105BF
:1015F00091F488B1816088B98FEF90E30197F1F79A
:1016000000C0000088B18E7F88B98FEF90E301970A
:10161000F1F700C00000EE32F10591F488B181606D
:1016200088B987EE93E30197F1F700C0000088B115
:101630008E7F88B987EE93E30197F1F700C0000031
:10164000EC32F10591F488B1816088B98FEF96E3AF
:101650000197F1F700C0000088B18E7F88B98FEF45
:1016600096E30197F1F700C00000E932F10591F42B
:1016700088B1816088B983E49AE30197F1F700C0EB
:10168000000088B18E7F88B983E49AE30197F1F76F
:1016900000C00000E732F10591F488B1816088B99B
:1016A0008BEB9DE30197F1F700C0000088B18E7FBE
:1016B00088B98BEB9DE30197F1F700C00000E5329C
:1016C000F10591F488B1816088B987E691E40197CA
:1016D000F1F700C0000088B18E7F88B987E691E4F9
:1016E0000197F1F700C00000E332F10591F488B1F1
:1016F000816088B98BE495E40197F1F700C00000A0
:1017000088B18E7F88B98BE495E40197F1F700C02A
:101710000000E132F10591F488B1816088B98BE66F
:1017200099E40197F1F700C0000088B18E7F88B975
:101730008BE699E40197F1F700C00000EF31F10565
:1017400091F488B1816088B987EC9DE40197F1F745
:1017500000C0000088B18E7F88B987EC9DE40197B6
:10176000F1F700C00000615071099CC8089581E044
:1017700090E090930A068093090608959C012150F9
:101780003109892B41F08FE99FE00197F1F700C003
:101790000000C901F3CF08950F931F93CF93DF93F8
:1017A000C0E0D0E0CB3CD1050CF050C080910906E0
:1017B00090910A06892B19F480E090E047C0CE0191
:1017C000880F991FFC01EA53FD4F20813181FC01F4
:1017D000E05DFE4F008111812115310549F0C801FE
:1017E00062E370E00E947116C9010E94400416C0B5
:1017F000C8016AE070E00E947116072E000C880B89
:10180000990B0E94D11520E030E040E05FE30E9498
:101810002C150E949915CB010E94BE0BC8016AE0ED
:1018200070E00E947116072E000C880B990B0E9425
:10183000D11520E030E040EB50E40E942C150E94CE
:101840009915CB010E94BE0B2196ACCFDF91CF91B1
:101850001F910F9108950F931F93CF93DF93C0E0D3
:10186000D0E0CB3CD1050CF050C08091090690919E
:101870000A06892B19F480E090E047C0CE01880F5A
:10188000991FFC01EA53FD4F20813181FC01E05D8D
:10189000FE4F008111812115310549F0C80162E335
:1018A00070E00E947116C9010E94400416C0C80170
:1018B0006AE070E00E947116072E000C880B990BED
:1018C0000E94D11520E030E040E05FE30E942C153B
:1018D0000E949915CB010E94BE0BC8016AE070E01E
:1018E0000E947116072E000C880B990B0E94D115CF
:1018F00020E030E040EB50E40E942C150E94991546
:10190000CB010E94BE0B2196ACCFDF91CF911F91EE
:101910000F9108958091E3059091E405009719F4E3
:101920000E94CC0B0895019711F40E942B0C08958E
:101930000E94E60082E995E00E9421150F2EF5E154
:10194000AF2EB12CF02D6894CC24C2F8D12CEE240B
:10195000E394F12C01E010E020E030E040E050E0C2
:1019600060E070E082E995E00E943C1481E08093A1
:10197000DA0587B1816087B92FEF33EC69E0215038
:1019800030406040E1F700C000000E944601EC01D9
:101990000F2EFBEFAF2EF5E0BF2EF02D0F2EFDEF3B
:1019A000CF2EF5E0DF2EF02D0F2EFFEFEF2EF5E01E
:1019B000FF2EF02D01E016E023E036E045E056E092
:1019C00067E076E082E995E00E9498140E945D014C
:1019D0009093E0058093DF0580E090E085309105ED
:1019E0004CF5FC01EE0FFF1FE80FF91FEE0FFF1F74
:1019F000E954FA4F40815181209103063091040649
:101A000042175307A9F4FC01EE0FFF1FE80FF91F5F
:101A1000EE0FFF1FE954FA4F4281538120910506D2
:101A2000309106064217530719F421E02093B505BB
:101A30000196D4CF8091B505882381F088B181606B
:101A400088B97FEF83ED90E3715080409040E1F7DB
:101A500000C000000E94B70B0E948A0C8091E5052F
:101A60009091E6058230910509F491C234F4009713
:101A700061F0019709F4F5C07FCF8330910509F437
:101A800062C5049709F40EC677CF8091DA058823E2
:101A900009F46CC00E9439018091070690910806F4
:101AA0009093EC058093EB05E091FD05F091FE0528
:101AB000EE0FFF1FE65FFE4F20813181E091FF05B1
:101AC000F0910006EE0FFF1FEE5DFE4F80819181C9
:101AD0004091FC054F934091FB054F933F932F930B
:101AE0009F938F93809102068F93809101068F932D
:101AF00082E694E09F938F9384EA95E09F938F937F
:101B00000E949A16809108068F93809107068F9302
:101B1000809106068F93809105068F93809104062D
:101B20008F93809103068F9382E794E09F938F9326
:101B300083E995E09F938F930E949A1644EA55E0BB
:101B400062E080E00E941D0143E955E064E081E02D
:101B50000E941D011092DA052DB73EB72A5E3F4F55
:101B60000FB6F8943EBF0FBE2DBF6FC08091070621
:101B7000909108062091EB053091EC0582179307B0
:101B800009F463C09093EC058093EB05E091FD05AB
:101B9000F091FE05EE0FFF1FE65FFE4F20813181C1
:101BA000E091FF05F0910006EE0FFF1FEE5DFE4F86
:101BB000808191814091FC054F934091FB054F93AB
:101BC0003F932F939F938F93809102068F938091E1
:101BD00001068F9382E694E09F938F9384EA95E0C9
:101BE0009F938F930E949A16809108068F938091FD
:101BF00007068F93809106068F93809105068F9339
:101C0000809104068F93809103068F9382E794E07E
:101C10009F938F9383E995E09F938F930E949A16E9
:101C200044EA55E062E080E00E941D0143E955E08E
:101C300064E081E00E941D016DB77EB76A5E7F4F50
:101C40000FB6F8947EBF0FBE6DBF219709F094CEFA
:101C500081E090E09093E6058093E5058093DA05B6
:101C60008BCE8091E7059091E805009719F00197D8
:101C7000D9F182CE8091DA05882381F00E94390162
:101C800041E854E060E080E00E941D014EE854E02D
:101C900060E081E00E941D011092DA05C230D1059A
:101CA00041F41092E6051092E50581E08093DA0593
:101CB00063CEC130D10551F482E090E09093E60507
:101CC0008093E50581E08093DA0556CECD2B09F0AF
:101CD00053CE81E090E09093E8058093E7058093F0
:101CE000DA050E94390148CE8091DA05882309F48B
:101CF0008BC00E943901809107069091080690934D
:101D0000FA058093F9058091050690910606909357
:101D1000F8058093F705809103069091040690934F
:101D2000F6058093F5058091010690910206809357
:101D3000F3059093F405E091FF05F0910006F09310
:101D4000F205E093F105A091FD05B091FE05B09379
:101D5000F005A093EF052091FB053091FC05209341
:101D6000ED053093EE05AA0FBB1FA65FBE4F6C9129
:101D700011967C91EE0FFF1FEE5DFE4F4081518169
:101D80003F932F937F936F935F934F939F938F9383
:101D900082E694E09F938F9384EA95E09F938F93DC
:101DA0000E949A168091FA058F938091F9058F937E
:101DB0008091F8058F938091F7058F938091F605B8
:101DC0008F938091F5058F9382E794E09F938F9393
:101DD00083E995E09F938F930E949A1644EA55E019
:101DE00062E080E00E941D0143E955E064E081E08B
:101DF0000E941D011092DA058DB79EB746960FB668
:101E0000F8949EBF0FBE8DBF239741F481E080936D
:101E1000DA051092E8051092E705AECD8090DF0557
:101E20009090E0059FEF8916910409F4A5CD0F2E3F
:101E3000FDEDAF2EF5E0BF2EF02D0F2EFDEECF2ED7
:101E4000F5E0DF2EF02D0F2EFFEEEF2EF5E0FF2E4A
:101E5000F02D01EF15E023EF35E045EF55E067EF9A
:101E600075E089EF95E00E94BB01E091EF05F091EC
:101E7000F005EE0FFF1FE65FFE4F20813181E091FC
:101E8000F105F091F205EE0FFF1FEE5DFE4F808130
:101E900091814091EE054F934091ED054F933F9313
:101EA0002F939F938F938091F4058F938091F305E7
:101EB0008F9382E694E09F938F9384EA95E09F93BB
:101EC0008F930E949A168091FA058F938091F9055D
:101ED0008F938091F8058F938091F7058F93809170
:101EE000F6058F938091F5058F9382E794E09F9399
:101EF0008F9383E995E09F938F930E949A1644EA0B
:101F000055E062E080E00E941D0143E955E064E095
:101F100081E00E941D018091DD059091DE052DB7C5
:101F20003EB72A5E3F4F0FB6F8943EBF0FBE2DBF9F
:101F30000D9709F021CD1092DE051092DD05A090DD
:101F4000ED05B090EE05C090F105D090F205E0905F
:101F5000EF05F090F0050091F3051091F405209144
:101F6000F5053091F6054091F7055091F80560911F
:101F7000F9057091FA0582E995E00E943C141092EF
:101F8000E8051092E70581E08093DA05F5CC8091B1
:101F9000E7059091E8058130910509F447C01CF4EC
:101FA000892B49F0E9CC8230910509F4C0C0039730
:101FB00009F46CC1E1CC8091DA05882381F00E949C
:101FC000390141E854E060E080E00E941D014CE9E5
:101FD00054E060E081E00E941D011092DA05C230F9
:101FE000D10549F481E090E09093E6058093E50502
:101FF0008093DA05C1CCC130D10551F483E090E083
:102000009093E6058093E50581E08093DA05B4CCF2
:10201000CD2B09F0B1CC81E090E09093E80580935E
:10202000E7058093DA050E943901A6CC8091DA0594
:10203000882371F04BEA54E060E080E00E941D01CB
:1020400048EB54E06DE080E00E941D011092DA053B
:10205000C230D10571F48091000190910101019687
:1020600065E070E00E947116909301018093000179
:1020700040C0C130D105E1F480910001909101018F
:1020800001979093010180930001992324F4109209
:10209000010110920001809100019091010165E021
:1020A00070E00E947116909301018093000121C09D
:1020B000209781F480910001909101010196C9F06F
:1020C00081E08093DA0582E090E09093E8058093C8
:1020D000E7050FC0239769F48FEF9FEF90930101FD
:1020E000809300011092E8051092E70581E080934B
:1020F000DA05809100019091010101969F938F93E1
:102100008AEB94E09F938F9384EA95E09F938F935B
:102110000E949A1644EA55E060E080E00E941D01AA
:102120000F900F900F900F900F900F9025CC8091F3
:10213000DA05882371F04BEC54E060E081E00E9406
:102140001D0148EB54E06DE081E00E941D011092FA
:10215000DA05C230D10571F480910801909109012E
:10216000019663E070E00E947116909309018093DC
:10217000080150C0C130D105F1F48091080190915F
:10218000090101979093090180930801992334F480
:1021900084E090E090930901809308018091080108
:1021A0009091090163E070E00E947116909309011B
:1021B000809308012FC02097D1F48091080190915D
:1021C00009018F3F6FEF960729F121E02093DA058F
:1021D00023E030E03093E8052093E705892BD1F424
:1021E00087E090E09093DE058093DD0513C0239790
:1021F00089F48FEF9FEF90930901809308019093EA
:102200000101809300011092E8051092E70581E03A
:102210008093DA058091080190910901009739F4C3
:102220008DE195E09093DC058093DB0512C0813051
:10223000910539F487ED94E09093DC058093DB05FC
:1022400008C0029731F48BED94E09093DC05809305
:10225000DB058091DC058F938091DB058F9380EE09
:1022600094E09F938F9384EA95E09F938F930E94CD
:102270009A1644EA55E060E081E00E941D010F904B
:102280000F900F900F900F900F9076CB80910801D8
:102290009091090181309105F9F4809100019091AC
:1022A0000101FC01EE0FFF1FE80FF91FEE0FFF1FEA
:1022B000E954FA4F1182108213821282158214821D
:1022C000FC01EB52FA4F108281E08093DA05109204
:1022D000E8051092E70550CB009709F0C0C0809147
:1022E000DA05882321F00E9439011092DA058090E6
:1022F000DF059090E0057FEF8716910409F44BC04D
:1023000080910001909101019C01220F331FA901CE
:10231000480F591F440F551F49545A4FB901680FB0
:10232000791F660F771F67547A4F820F931F880FAC
:10233000991F0F2EFDEDAF2EF5E0BF2EF02D0F2EC5
:10234000FDEECF2EF5E0DF2EF02D0F2EFFEEEF2E5F
:10235000F5E0FF2EF02D01EF15E023EF35E0855479
:102360009A4F0E94BB018091DD059091DE050D978B
:1023700091F4E0910001F0910101EB52FA4F81E0FC
:1023800080831092DE051092DD051092E805109210
:10239000E7058093DA058091000190910101FC012D
:1023A000EE0FFF1FDF01A80FB91FAA0FBB1FA95413
:1023B000BA4F14964C91149715965C9115971296F6
:1023C0002C91129713963C911397FD018081918176
:1023D0005F934F933F932F939F938F9382E794E064
:1023E0009F938F9384EA95E09F938F930E949A1610
:1023F00044EA55E060E080E00E941D018FEF93EC1D
:1024000029E0815090402040E1F700C00000409159
:10241000DD055091DE059A0127503109C9016DB7DC
:102420007EB7665F7F4F0FB6F8947EBF0FBE6DBF5D
:1024300099230CF401969C01359527954650510936
:10244000CA0199230CF4019695958795220F622F66
:10245000680F48EB54E080E00E941D018DCA02978E
:1024600009F08ACA8091DA05882321F00E94390197
:102470001092DA058091000190910101FC01EE0FAC
:10248000FF1FDF01A80FB91FAA0FBB1FA954BA4F26
:1024900014964C91149715965C91159712962C9161
:1024A000129713963C911397FD01808191815F9360
:1024B0004F933F932F939F938F9382E794E09F9343
:1024C0008F9384EA95E09F938F930E949A1644EA33
:1024D00055E060E080E00E941D01E0910001F09174
:1024E0000101EB52FA4F80812DB73EB7265F3F4F77
:1024F0000FB6F8943EBF0FBE2DBF882351F087E082
:10250000E2EFF4E0A3E9B5E001900D928A95E1F7DE
:1025100009C089E0E0EFF4E0A3E9B5E001900D9295
:102520008A95E1F743E955E060E081E00E941D01F2
:10253000239709F021CA81E08093DA051092E8051B
:102540001092E70519CA8091E7059091E805009778
:1025500019F00197D9F110CA8091DA05882381F02A
:102560000E94390141E854E060E080E00E941D01D2
:1025700049EF54E060E081E00E941D011092DA050D
:10258000C230D10551F482E090E09093E60580934B
:10259000E50581E08093DA05EFC9C130D10551F43A
:1025A00084E090E09093E6058093E50581E08093D8
:1025B000DA05E2C9CD2B09F0DFC981E090E0909304
:1025C000E8058093E7058093DA05D6C98091DA059E
:1025D000882391F00E943901E091E105F091E20534
:1025E000EE0FFF1FEE5FFE4F4081518160E080E003
:1025F0000E941D011092DA05C230D105D1F48091FC
:10260000E1059091E205009751F0019763E070E0D9
:102610000E9471169093E2058093E10506C082E066
:1026200090E09093E2058093E10581E08093DA05E4
:10263000A3C9C130D10589F48091E1059091E205EB
:10264000019663E070E00E9471169093E20580931A
:10265000E10581E08093DA058FC9209781F48091AC
:10266000E1059091E2059093E4058093E3051092D3
:10267000E8051092E70581E08093DA057DC923978C
:1026800009F07AC98091E3059091E4059093E20501
:102690008093E1051092E8051092E70581E08093B0
:1026A000DA056AC98091E7059091E805009719F06D
:1026B000019771F161C98091DA05882381F00E9448
:1026C000390141E854E060E080E00E941D0147E0EC
:1026D00055E060E081E00E941D011092DA05C230F1
:1026E000D10551F483E090E09093E6058093E505F1
:1026F00081E08093DA0540C9CD2B09F03DC981E026
:1027000090E09093E8058093E7058093DA0534C95B
:102710008091DA05882351F00E94390143E155E0A8
:1027200060E080E00E941D011092DA05CE01019761
:102730000297B0F49091B60581E089278093B605A1
:10274000882339F048E555E060E081E00E941D01F2
:1027500013C941E255E060E081E00E941D010CC90F
:10276000209769F48091B605882309F405C9109271
:10277000E8051092E70581E08093DA05FDC823970C
:1027800009F0FAC81092B6051092E8051092E70514
:1027900081E08093DA05F0C86FEF7FEF81E090E091
:1027A0000E946C00089508958FEF8093B8000895FB
:1027B00084EA8093BC008091BC008823E4F70895EC
:1027C00084E98093BC0008956093BB0084E8809303
:1027D000BC008091BC008823E4F7089584EC8093CA
:1027E000BC008091BC008823E4F78091BB00089571
:1027F00084E88093BC008091BC008823E4F780913A
:10280000BB0008959DEC699F912D11249695969596
:102810009695292F220F822F880F880F820F681B11
:10282000862F20E1929F800D11240895862F829596
:102830008F70880F982F990F990F890F6F70860FDF
:102840000895CF93DF93EC010E94D81360EDCE0181
:102850000E94E4136EE0CE010E94E41360E2CE0118
:102860000E94E41368E0CE010E94E413CE010E94AE
:10287000E013DF91CF910895AF92CF92DF92EF9264
:10288000FF920F931F93CF93DF93EC01D62EF42E7C
:10289000122F0E94D81360EDCE010E94E41360E075
:1028A000CE010E94E4136D2DCE010E940214682F08
:1028B000CE010E94E4136F2DCE010E940214682FF6
:1028C000CE010E94E413612FCE010E940214682FF2
:1028D000CE010E94E4136C2DCE010E940214682FD9
:1028E000CE010E94E413602FCE010E940214682FD3
:1028F000CE010E94E4136E2DCE010E940214682FB7
:10290000CE010E94E4136A2DCE010E940214682FAA
:10291000CE010E94E413CE010E94E013DF91CF911B
:102920001F910F91FF90EF90DF90CF90AF9008959F
:102930004F925F926F927F928F929F92AF92BF92CF
:10294000CF92DF92EF92FF920F931F93CF93DF937B
:10295000EC014B013A0129010E94D81360EDCE0130
:102960000E94E41360E0CE010E94E413CE010E94B5
:10297000E013CE010E94D81361EDCE010E94E41352
:10298000CE010E94EE13682FCE010E94161490E033
:10299000F40191838083CE010E94EE13682FCE0153
:1029A0000E94161490E0F30191838083CE010E946F
:1029B000EE13682FCE010E94161490E0F20191836D
:1029C0008083CE010E94EE13682FCE010E94161460
:1029D00090E0F70191838083CE010E94EE13682F6F
:1029E000CE010E94161490E0F80191838083CE01FD
:1029F0000E94EE13682FCE010E94161490E0F6019B
:102A000091838083CE010E94F813682FCE010E942B
:102A1000161490E0F50191838083CE010E94E013AB
:102A2000DF91CF911F910F91FF90EF90DF90CF90AA
:102A3000BF90AF909F908F907F906F905F904F90DE
:102A40000895CF93DF93EC010E94D413CE010E942E
:102A50002114DF91CF9108955058BB27AA270E94D7
:102A600044150C9423160E94151638F00E941C166B
:102A700020F039F49F3F19F426F40C9412160EF44A
:102A8000E095E7FB0C940C16E92F0E94341658F3DE
:102A9000BA17620773078407950720F079F4A6F543
:102AA0000C9456160EF4E0950B2EBA2FA02D0B01A8
:102AB000B90190010C01CA01A0011124FF27591B83
:102AC00099F0593F50F4503E68F11A16F040A22F89
:102AD000232F342F4427585FF3CF469537952795FA
:102AE000A795F0405395C9F77EF41F16BA0B620BF9
:102AF000730B840BBAF09150A1F0FF0FBB1F661F40
:102B0000771F881FC2F70EC0BA0F621F731F841F82
:102B100048F4879577956795B795F7959E3F08F0A8
:102B2000B0CF9395880F08F09927EE0F979587956A
:102B300008950E94A0156894B1110C945716089539
:102B40000E943C1688F09F5798F0B92F9927B751EB
:102B5000B0F0E1F0660F771F881F991F1AF0BA9541
:102B6000C9F714C0B13091F00E945616B1E0089533
:102B70000C945616672F782F8827B85F39F0B93F25
:102B8000CCF3869577956795B395D9F73EF49095F4
:102B90008095709561957F4F8F4F9F4F0895E89472
:102BA00009C097FB3EF490958095709561957F4F95
:102BB0008F4F9F4F9923A9F0F92F96E9BB27939543
:102BC000F695879577956795B795F111F8CFFAF453
:102BD000BB0F11F460FF1BC06F5F7F4F8F4F9F4F84
:102BE00016C0882311F096E911C0772321F09EE8E2
:102BF000872F762F05C0662371F096E8862F70E048
:102C000060E02AF09A95660F771F881FDAF7880F21
:102C10009695879597F9089597F99F6780E870E0F2
:102C200060E008959FEF80EC089500240A94161642
:102C3000170618060906089500240A9412161306AA
:102C4000140605060895092E0394000C11F4882338
:102C500052F0BB0F40F4BF2B11F460FF04C06F5F54
:102C60007F4F8F4F9F4F089557FD9058440F551F2A
:102C700059F05F3F71F04795880F97FB991F61F0FE
:102C80009F3F79F087950895121613061406551F75
:102C9000F2CF4695F1DF08C0161617061806991FE1
:102CA000F1CF86957105610508940895E894BB27D6
:102CB00066277727CB0197F90895AA1BBB1B51E123
:102CC00007C0AA1FBB1FA617B70710F0A61BB70B9C
:102CD000881F991F5A95A9F780959095BC01CD0141
:102CE000089597FB072E16F4009407D077FD09D0BE
:102CF0000E945D1607FC05D03EF4909581959F4F8C
:102D00000895709561957F4F0895EE0FFF1F059010
:102D1000F491E02D0994A29FB001B39FC001A39F3D
:102D2000700D811D1124911DB29F700D811D112404
:102D3000911D0895AEE0B0E0E0EAF6E10C945B1975
:102D40000D891E8986E08C831A8309838FEF9FE7A4
:102D50009E838D83AE01475E5F4F6F89788DCE0174
:102D600001960E94BC16EF81F885E00FF11F1082DA
:102D70002E96E4E00C947719ABE0B0E0E2ECF6E1DB
:102D80000C944D196C017B018A01FC01178216829B
:102D9000838181FFCCC1CE0101963C01F601938174
:102DA000F70193FD859193FF81917F01882309F4B9
:102DB000BAC1853239F493FD859193FF81917F01EA
:102DC000853229F4B60190E00E94B318E7CF912C28
:102DD000212C312CFFE1F315D8F08B3279F038F447
:102DE000803279F08332A1F4232D20611DC08D3211
:102DF00061F0803369F4232D216016C0832D826039
:102E0000382EE32DE4603E2E2AC0F32DF8601DC05D
:102E100037FC2DC020ED280F2A3040F08E32B9F457
:102E200036FC81C1232D2064322E19C036FE06C027
:102E30008AE0989E200D1124922E11C0EAE02E9E69
:102E4000200D1124222EF32DF0623F2E08C08C3667
:102E500021F4832D8068382E02C0883641F4F701B2
:102E600093FD859193FF81917F018111B3CF982FBD
:102E70009F7D9554933028F40C5F1F4F9FE39983F7
:102E80000DC0833631F0833771F0833509F059C0B6
:102E900021C0F801808189830E5F1F4F88248394AD
:102EA000912C530113C02801F2E04F0E511CF80180
:102EB000A080B18036FE03C0692D70E002C06FEFC4
:102EC0007FEFC5010E94A8184C018201F32DFF7706
:102ED0003F2E16C0280122E0420E511CF801A080AE
:102EE000B18036FE03C0692D70E002C06FEF7FEF46
:102EF000C5010E949D184C01F32DF0683F2E820100
:102F000033FC1BC0822D90E088169906B0F4B60100
:102F100080E290E00E94B3182A94F4CFF50137FCC8
:102F2000859137FE81915F01B60190E00E94B31850
:102F300021102A9421E0821A91088114910471F7DA
:102F4000E8C0843611F0893641F5F80137FE07C034
:102F500060817181828193810C5F1F4F08C0608105
:102F60007181072E000C880B990B0E5F1F4FF32DFC
:102F7000FF763F2E97FF09C09095809570956195DB
:102F80007F4F8F4F9F4FF0683F2E2AE030E0A30124
:102F90000E94EF18882E861845C0853731F4232DFE
:102FA0002F7EB22E2AE030E025C0932D997FB92ED6
:102FB0008F36C1F018F4883579F0B5C0803719F034
:102FC000883721F0B0C0E92FE061BE2EB4FE0DC0FD
:102FD000FB2DF460BF2E09C034FE0AC0292F2660E5
:102FE000B22E06C028E030E005C020E130E002C08B
:102FF00020E132E0F801B7FE07C060817181828173
:1030000093810C5F1F4F06C06081718180E090E06A
:103010000E5F1F4FA3010E94EF18882E8618FB2D0C
:10302000FF773F2E36FE0DC0232D2E7FA22E891452
:1030300058F434FE0BC032FC09C0832D8E7EA82EBE
:1030400005C0B82CA32C03C0B82C01C0B92CA4FE19
:103050000FC0FE01E80DF11D8081803321F49A2D0F
:10306000997EA92E09C0A2FE06C0B394B39404C0F1
:103070008A2D867809F0B394A3FC11C0A0FE06C087
:10308000B21488F4280C922C9B180EC0B21460F471
:10309000B60180E290E00E94B318B394F7CFB21467
:1030A00018F42B1802C0982C212CA4FE10C0B601D5
:1030B00080E390E00E94B318A2FE17C0A1FC03C0F9
:1030C00088E790E002C088E590E0B6010CC08A2D48
:1030D000867859F0A1FE02C08BE201C080E2A7FC15
:1030E0008DE2B60190E00E94B318891438F4B6015D
:1030F00080E390E00E94B3189A94F7CF8A94F3018A
:10310000E80DF11D8081B60190E00E94B318811096
:10311000F5CF222009F442CEB60180E290E00E9471
:10312000B3182A94F6CFF6018681978102C08FEFFB
:103130009FEF2B96E2E10C946919FC010590615018
:1031400070400110D8F7809590958E0F9F1F0895BD
:10315000FC016150704001900110D8F78095909566
:103160008E0F9F1F08950F931F93CF93DF93FB0143
:10317000238121FD03C08FEF9FEF2CC022FF16C0DB
:1031800046815781248135814217530744F4A08139
:10319000B1819D012F5F3F4F318320838C93268126
:1031A00037812F5F3F4F3783268314C08B01EC019B
:1031B000FB010084F185E02D0995892BE1F6D8010A
:1031C00016968D919C911797019617969C938E93C6
:1031D0001697CE01DF91CF911F910F910895FA01BB
:1031E000AA27283051F1203181F1E8946F936E7F46
:1031F0006E5F7F4F8F4F9F4FAF4FB1E03ED0B4E037
:103200003CD0670F781F891F9A1FA11D680F791F77
:103210008A1F911DA11D6A0F711D811D911DA11D88
:1032200020D009F468943F912AE0269F1124301998
:10323000305D3193DEF6CF010895462F4770405D33
:103240004193B3E00FD0C9F7F6CF462F4F70405DE2
:103250004A3318F0495D31FD4052419302D0A9F73D
:10326000EACFB4E0A6959795879577956795BA9537
:10327000C9F700976105710508959B01AC010A2EFD
:1032800006945795479537952795BA95C9F7620FD4
:10329000731F841F951FA01D08952F923F924F9278
:1032A0005F926F927F928F929F92AF92BF92CF92D6
:1032B000DF92EF92FF920F931F93CF93DF93CDB7DF
:1032C000DEB7CA1BDB0B0FB6F894DEBF0FBECDBF57
:1032D00009942A88398848885F846E847D848C8428
:1032E0009B84AA84B984C884DF80EE80FD800C8131
:1032F0001B81AA81B981CE0FD11D0FB6F894DEBF14
:0C3300000FBECDBFED010895F894FFCF83
:10330C00FFFF23052E053A05FFFF46054A054E052E
:10331C00520556055A055E05620566056A056E0579
:10332C00720576057A057E05820586058A058E0569
:10333C007D007D00FA007D007D007D007D00FA009F
:10334C007D007D007D007D00FA007D007D007D000C
:10335C007D0077017D007D007D00FA007D007D0001
:10336C007D007D00FA007D007D007D007D00FA006F
:10337C007D007D007D007D0077017D007D007D005E
:10338C00FA007D007D007D007D00FA007D007D004F
:10339C007D007D00FA007D007D007D007D007D00BC
:1033AC00FA007D007D007D00FA007D007D00FA00B2
:1033BC007D00FA007D007D007D00FA007D007D001F
:1033CC007D007D0077017701FA007D007D007D0096
:1033DC00FA007D007D007D007D00FA007D007D00FF
:1033EC007D007D0077017D007D007D00FA007D0071
:1033FC007D007D007D00FA007D007D007D007D005C
:10340C00FA007D007D007D007D0077017D007D0050
:10341C007D00FA007D007D007D007D00FA007D00BE
:10342C007D007D007D00FA007D007D007D007D002B
:10343C007D00FA007D007D007D00FA007D007D009E
:10344C00FA007D00FA007D007D007D00FA007D0011
:10345C007D007D007D0077017701FA007D0077010A
:10346C00FA007D0077017D007D007D007D007D00F0
:10347C007D007D007D007701FA007D007701FA0068
:10348C007D0077017D007D007D007D007D00F401D5
:10349C00FA007D007701FA007D0077017D007D0048
:1034AC007D007D007D007D007D007D007701FA00B0
:1034BC007D007701FA007D0077017D007D007D00A5
:1034CC007D007D00F4014A018801B801B8010000BB
:1034DC00B801EE010B020B0200000B024B02EE01D5
:1034EC00EE010000B8018801B80100004A01880112
:1034FC00B801B8010000B801EE010B020B0200008C
:10350C000B024B02EE01EE010000B8018801B8017C
:10351C0000004A018801B801B8010000B8010B0293
:10352C004B024B0200004B029302BA02BA0200009B
:10353C0093024B029302B8010000B801EE010B029A
:10354C000B0200004B029302B8010000B8010B0201
:10355C00EE01EE0100000B02B801EE010000B80113
:10356C00B801B801EE010B020B0200000B024B027A
:10357C00EE01EE010000B8018801B80100004A011B
:10358C008801B801B8010000B801EE010B020B0272
:10359C0000000B024B02EE01EE010000B8018801A5
:1035AC00B80100004A018801B801B8010000B80157
:1035BC000B024B024B0200004B029302BA02BA02FE
:1035CC00000093024B029302B8010000B801EE0117
:1035DC000B020B0200004B029302B8010000B80171
:1035EC000B02EE01EE0100000B02B801EE0100002F
:1035FC00930200000000BA02000000009302930244
:10360C0000001003000093024B02000000004B026C
:10361C00000000000B0200000000EE010B02000095
:10362C00EE010000B801930200000000BA02000095
:10363C0000009302930200001003000093024B025F
:10364C00000000004B02000000000B020000000014
:10365C00EE010B020000EE010000B80103000400B3
:10366C000500253032642D25732F25732F2530321C
:10367C006400253032643A253032643A25303264A5
:10368C00002020202053455454494E4753002020FD
:10369C00312E454449542054494D450020322E4585
:1036AC0044495420414C41524D5300454E544552CF
:1036BC0020414C41524D3A005F00454E544552203A
:1036CC00414C41524D3A2025642000454E54455200
:1036DC00204D4F44453A00434C5200564945570043
:1036EC00454E544552204D4F44453A2025732000F9
:1036FC00494E414354495645002020332E454449F8
:10370C005420544F4E450020202020342E52455337
:10371C00455400434F4E4649524D20524553455453
:10372C00006E00312E504952415445532000322E28
:10373C00474F54205448454D4500332E4445535073
:10374C00414349544F004A414E00464542004D41C9
:10375C005200415052004D4159004A554E004A55B5
:10376C004C0041554700534550004F4354004E4FB9
:10377C0056004445430053554E004D4F4E00545592
:10378C0045005745440054485500465249005341A2
:02379C005400D7
:00000001FF
